{
  "_format": "hh-sol-artifact-1",
  "contractName": "verifyportal",
  "sourceName": "contracts/verify.sol",
  "abi": [
    {
      "inputs": [],
      "stateMutability": "nonpayable",
      "type": "constructor"
    },
    {
      "anonymous": false,
      "inputs": [
        {
          "indexed": true,
          "internalType": "address",
          "name": "from",
          "type": "address"
        },
        {
          "indexed": false,
          "internalType": "uint256",
          "name": "timestamp",
          "type": "uint256"
        },
        {
          "indexed": false,
          "internalType": "string",
          "name": "message",
          "type": "string"
        }
      ],
      "name": "NewVerify",
      "type": "event"
    },
    {
      "inputs": [],
      "name": "getAllVerifications",
      "outputs": [
        {
          "components": [
            {
              "internalType": "address",
              "name": "verifier",
              "type": "address"
            },
            {
              "internalType": "string",
              "name": "message",
              "type": "string"
            },
            {
              "internalType": "uint256",
              "name": "timestamp",
              "type": "uint256"
            }
          ],
          "internalType": "struct verifyportal.Verify[]",
          "name": "",
          "type": "tuple[]"
        }
      ],
      "stateMutability": "view",
      "type": "function"
    },
    {
      "inputs": [],
      "name": "getTotalVerifications",
      "outputs": [
        {
          "internalType": "uint256",
          "name": "",
          "type": "uint256"
        }
      ],
      "stateMutability": "view",
      "type": "function"
    },
    {
      "inputs": [
        {
          "internalType": "string",
          "name": "_message",
          "type": "string"
        }
      ],
      "name": "verify",
      "outputs": [],
      "stateMutability": "nonpayable",
      "type": "function"
    }
  ],
  "bytecode": "60806040523480156200001157600080fd5b506200005d6040518060400160405280601081526020017f68656c6c6f20636f6e74726163747321000000000000000000000000000000008152506200006360201b620003ab1760201c565b620001ed565b62000103816040516024016200007a9190620001c9565b6040516020818303038152906040527f41304fac000000000000000000000000000000000000000000000000000000007bffffffffffffffffffffffffffffffffffffffffffffffffffffffff19166020820180517bffffffffffffffffffffffffffffffffffffffffffffffffffffffff83818316178352505050506200010660201b60201c565b50565b60008151905060006a636f6e736f6c652e6c6f679050602083016000808483855afa5050505050565b600081519050919050565b600082825260208201905092915050565b60005b838110156200016b5780820151818401526020810190506200014e565b60008484015250505050565b6000601f19601f8301169050919050565b600062000195826200012f565b620001a181856200013a565b9350620001b38185602086016200014b565b620001be8162000177565b840191505092915050565b60006020820190508181036000830152620001e5818462000188565b905092915050565b610e1980620001fd6000396000f3fe608060405234801561001057600080fd5b50600436106100415760003560e01c8063bb9c6c3e14610046578063e4c085e914610062578063f2df901714610080575b600080fd5b610060600480360381019061005b9190610702565b61009e565b005b61006a61020f565b6040516100779190610936565b60405180910390f35b610088610360565b6040516100959190610967565b60405180910390f35b60016000808282546100b091906109b1565b925050819055506100f76040518060400160405280601681526020017f257320776176656420772f206d657373616765202573000000000000000000008152503383610444565b600160405180606001604052803373ffffffffffffffffffffffffffffffffffffffff16815260200183815260200142815250908060018154018082558091505060019003906000526020600020906003020160009091909190915060008201518160000160006101000a81548173ffffffffffffffffffffffffffffffffffffffff021916908373ffffffffffffffffffffffffffffffffffffffff16021790555060208201518160010190816101af9190610bf1565b506040820151816002015550503373ffffffffffffffffffffffffffffffffffffffff167f78f2c47d63cf08b317581c03e119cda934e8e155f48aad07727cc234d918b2bf4283604051610204929190610d0d565b60405180910390a250565b60606001805480602002602001604051908101604052809291908181526020016000905b8282101561035757838290600052602060002090600302016040518060600160405290816000820160009054906101000a900473ffffffffffffffffffffffffffffffffffffffff1673ffffffffffffffffffffffffffffffffffffffff1673ffffffffffffffffffffffffffffffffffffffff1681526020016001820180546102bc90610a14565b80601f01602080910402602001604051908101604052809291908181526020018280546102e890610a14565b80156103355780601f1061030a57610100808354040283529160200191610335565b820191906000526020600020905b81548152906001019060200180831161031857829003601f168201915b5050505050815260200160028201548152505081526020019060010190610233565b50505050905090565b60006103a36040518060400160405280601f81526020017f5765206861766520256420746f74616c20766572696669636174696f6e7321008152506000546104e3565b600054905090565b610441816040516024016103bf9190610d3d565b6040516020818303038152906040527f41304fac000000000000000000000000000000000000000000000000000000007bffffffffffffffffffffffffffffffffffffffffffffffffffffffff19166020820180517bffffffffffffffffffffffffffffffffffffffffffffffffffffffff838183161783525050505061057f565b50565b6104de83838360405160240161045c93929190610d6e565b6040516020818303038152906040527fe0e9ad4f000000000000000000000000000000000000000000000000000000007bffffffffffffffffffffffffffffffffffffffffffffffffffffffff19166020820180517bffffffffffffffffffffffffffffffffffffffffffffffffffffffff838183161783525050505061057f565b505050565b61057b82826040516024016104f9929190610db3565b6040516020818303038152906040527fb60e72cc000000000000000000000000000000000000000000000000000000007bffffffffffffffffffffffffffffffffffffffffffffffffffffffff19166020820180517bffffffffffffffffffffffffffffffffffffffffffffffffffffffff838183161783525050505061057f565b5050565b60008151905060006a636f6e736f6c652e6c6f679050602083016000808483855afa5050505050565b6000604051905090565b600080fd5b600080fd5b600080fd5b600080fd5b6000601f19601f8301169050919050565b7f4e487b7100000000000000000000000000000000000000000000000000000000600052604160045260246000fd5b61060f826105c6565b810181811067ffffffffffffffff8211171561062e5761062d6105d7565b5b80604052505050565b60006106416105a8565b905061064d8282610606565b919050565b600067ffffffffffffffff82111561066d5761066c6105d7565b5b610676826105c6565b9050602081019050919050565b82818337600083830152505050565b60006106a56106a084610652565b610637565b9050828152602081018484840111156106c1576106c06105c1565b5b6106cc848285610683565b509392505050565b600082601f8301126106e9576106e86105bc565b5b81356106f9848260208601610692565b91505092915050565b600060208284031215610718576107176105b2565b5b600082013567ffffffffffffffff811115610736576107356105b7565b5b610742848285016106d4565b91505092915050565b600081519050919050565b600082825260208201905092915050565b6000819050602082019050919050565b600073ffffffffffffffffffffffffffffffffffffffff82169050919050565b60006107a282610777565b9050919050565b6107b281610797565b82525050565b600081519050919050565b600082825260208201905092915050565b60005b838110156107f25780820151818401526020810190506107d7565b60008484015250505050565b6000610809826107b8565b61081381856107c3565b93506108238185602086016107d4565b61082c816105c6565b840191505092915050565b6000819050919050565b61084a81610837565b82525050565b600060608301600083015161086860008601826107a9565b506020830151848203602086015261088082826107fe565b91505060408301516108956040860182610841565b508091505092915050565b60006108ac8383610850565b905092915050565b6000602082019050919050565b60006108cc8261074b565b6108d68185610756565b9350836020820285016108e885610767565b8060005b85811015610924578484038952815161090585826108a0565b9450610910836108b4565b925060208a019950506001810190506108ec565b50829750879550505050505092915050565b6000602082019050818103600083015261095081846108c1565b905092915050565b61096181610837565b82525050565b600060208201905061097c6000830184610958565b92915050565b7f4e487b7100000000000000000000000000000000000000000000000000000000600052601160045260246000fd5b60006109bc82610837565b91506109c783610837565b92508282019050808211156109df576109de610982565b5b92915050565b7f4e487b7100000000000000000000000000000000000000000000000000000000600052602260045260246000fd5b60006002820490506001821680610a2c57607f821691505b602082108103610a3f57610a3e6109e5565b5b50919050565b60008190508160005260206000209050919050565b60006020601f8301049050919050565b600082821b905092915050565b600060088302610aa77fffffffffffffffffffffffffffffffffffffffffffffffffffffffffffffffff82610a6a565b610ab18683610a6a565b95508019841693508086168417925050509392505050565b6000819050919050565b6000610aee610ae9610ae484610837565b610ac9565b610837565b9050919050565b6000819050919050565b610b0883610ad3565b610b1c610b1482610af5565b848454610a77565b825550505050565b600090565b610b31610b24565b610b3c818484610aff565b505050565b5b81811015610b6057610b55600082610b29565b600181019050610b42565b5050565b601f821115610ba557610b7681610a45565b610b7f84610a5a565b81016020851015610b8e578190505b610ba2610b9a85610a5a565b830182610b41565b50505b505050565b600082821c905092915050565b6000610bc860001984600802610baa565b1980831691505092915050565b6000610be18383610bb7565b9150826002028217905092915050565b610bfa826107b8565b67ffffffffffffffff811115610c1357610c126105d7565b5b610c1d8254610a14565b610c28828285610b64565b600060209050601f831160018114610c5b5760008415610c49578287015190505b610c538582610bd5565b865550610cbb565b601f198416610c6986610a45565b60005b82811015610c9157848901518255600182019150602085019450602081019050610c6c565b86831015610cae5784890151610caa601f891682610bb7565b8355505b6001600288020188555050505b505050505050565b600082825260208201905092915050565b6000610cdf826107b8565b610ce98185610cc3565b9350610cf98185602086016107d4565b610d02816105c6565b840191505092915050565b6000604082019050610d226000830185610958565b8181036020830152610d348184610cd4565b90509392505050565b60006020820190508181036000830152610d578184610cd4565b905092915050565b610d6881610797565b82525050565b60006060820190508181036000830152610d888186610cd4565b9050610d976020830185610d5f565b8181036040830152610da98184610cd4565b9050949350505050565b60006040820190508181036000830152610dcd8185610cd4565b9050610ddc6020830184610958565b939250505056fea2646970667358221220511ac9b2da6b367db06d2ee0c429b14fed826be9ae1a2751a2a76f7dae81b97564736f6c63430008120033",
  "linkReferences": {},
  "deployedLinkReferences": {}
}